{
  "contractName": "SwapTokens",
  "abi": [
    {
      "inputs": [
        {
          "internalType": "address",
          "name": "_token1_address",
          "type": "address"
        },
        {
          "internalType": "address",
          "name": "_token2_address",
          "type": "address"
        }
      ],
      "stateMutability": "nonpayable",
      "type": "constructor"
    },
    {
      "anonymous": false,
      "inputs": [
        {
          "indexed": false,
          "internalType": "uint256",
          "name": "gas",
          "type": "uint256"
        }
      ],
      "name": "Log",
      "type": "event"
    },
    {
      "anonymous": false,
      "inputs": [
        {
          "indexed": false,
          "internalType": "address",
          "name": "account",
          "type": "address"
        },
        {
          "indexed": false,
          "internalType": "address",
          "name": "token",
          "type": "address"
        },
        {
          "indexed": false,
          "internalType": "uint256",
          "name": "amount",
          "type": "uint256"
        },
        {
          "indexed": false,
          "internalType": "uint256",
          "name": "rate",
          "type": "uint256"
        }
      ],
      "name": "TokensPurchased",
      "type": "event"
    },
    {
      "anonymous": false,
      "inputs": [
        {
          "indexed": false,
          "internalType": "address",
          "name": "account",
          "type": "address"
        },
        {
          "indexed": false,
          "internalType": "address",
          "name": "token",
          "type": "address"
        },
        {
          "indexed": false,
          "internalType": "uint256",
          "name": "amount",
          "type": "uint256"
        },
        {
          "indexed": false,
          "internalType": "uint256",
          "name": "rate",
          "type": "uint256"
        }
      ],
      "name": "TokensSold",
      "type": "event"
    },
    {
      "anonymous": false,
      "inputs": [
        {
          "indexed": false,
          "internalType": "address",
          "name": "caller",
          "type": "address"
        },
        {
          "indexed": false,
          "internalType": "uint256",
          "name": "tokenVal",
          "type": "uint256"
        }
      ],
      "name": "buyTokensACalled",
      "type": "event"
    },
    {
      "anonymous": false,
      "inputs": [
        {
          "indexed": false,
          "internalType": "address",
          "name": "caller",
          "type": "address"
        },
        {
          "indexed": false,
          "internalType": "uint256",
          "name": "tokenVal",
          "type": "uint256"
        }
      ],
      "name": "buyTokensBCalled",
      "type": "event"
    },
    {
      "anonymous": false,
      "inputs": [
        {
          "indexed": false,
          "internalType": "address",
          "name": "caller",
          "type": "address"
        },
        {
          "indexed": false,
          "internalType": "uint256",
          "name": "tokenVal",
          "type": "uint256"
        }
      ],
      "name": "sellTokensACalled",
      "type": "event"
    },
    {
      "anonymous": false,
      "inputs": [
        {
          "indexed": false,
          "internalType": "address",
          "name": "caller",
          "type": "address"
        },
        {
          "indexed": false,
          "internalType": "uint256",
          "name": "tokenVal",
          "type": "uint256"
        }
      ],
      "name": "sellTokensBCalled",
      "type": "event"
    },
    {
      "stateMutability": "payable",
      "type": "fallback",
      "payable": true
    },
    {
      "inputs": [],
      "name": "name",
      "outputs": [
        {
          "internalType": "string",
          "name": "",
          "type": "string"
        }
      ],
      "stateMutability": "view",
      "type": "function",
      "constant": true
    },
    {
      "inputs": [],
      "name": "owner",
      "outputs": [
        {
          "internalType": "address",
          "name": "",
          "type": "address"
        }
      ],
      "stateMutability": "view",
      "type": "function",
      "constant": true
    },
    {
      "inputs": [],
      "name": "rate1",
      "outputs": [
        {
          "internalType": "uint256",
          "name": "",
          "type": "uint256"
        }
      ],
      "stateMutability": "view",
      "type": "function",
      "constant": true
    },
    {
      "inputs": [],
      "name": "rate2",
      "outputs": [
        {
          "internalType": "uint256",
          "name": "",
          "type": "uint256"
        }
      ],
      "stateMutability": "view",
      "type": "function",
      "constant": true
    },
    {
      "stateMutability": "payable",
      "type": "receive",
      "payable": true
    },
    {
      "inputs": [],
      "name": "buyTokensA",
      "outputs": [],
      "stateMutability": "payable",
      "type": "function",
      "payable": true
    },
    {
      "inputs": [],
      "name": "buyTokensB",
      "outputs": [],
      "stateMutability": "payable",
      "type": "function",
      "payable": true
    },
    {
      "inputs": [
        {
          "internalType": "uint256",
          "name": "_amount",
          "type": "uint256"
        }
      ],
      "name": "sellTokensA",
      "outputs": [],
      "stateMutability": "nonpayable",
      "type": "function"
    },
    {
      "inputs": [
        {
          "internalType": "uint256",
          "name": "_amount",
          "type": "uint256"
        }
      ],
      "name": "sellTokensB",
      "outputs": [],
      "stateMutability": "nonpayable",
      "type": "function"
    }
  ],
  "bytecode": "0x60806040526040518060400160405280601b81526020017f53776170546f6b656e7320496e7374616e742045786368616e6765000000000081525060009080519060200190620000519291906200015a565b50606460035560c86004553480156200006957600080fd5b50604051620014f8380380620014f883398181016040528101906200008f919062000221565b81600160006101000a81548173ffffffffffffffffffffffffffffffffffffffff021916908373ffffffffffffffffffffffffffffffffffffffff16021790555080600260006101000a81548173ffffffffffffffffffffffffffffffffffffffff021916908373ffffffffffffffffffffffffffffffffffffffff16021790555033600560006101000a81548173ffffffffffffffffffffffffffffffffffffffff021916908373ffffffffffffffffffffffffffffffffffffffff160217905550505062000315565b828054620001689062000296565b90600052602060002090601f0160209004810192826200018c5760008555620001d8565b82601f10620001a757805160ff1916838001178555620001d8565b82800160010185558215620001d8579182015b82811115620001d7578251825591602001919060010190620001ba565b5b509050620001e79190620001eb565b5090565b5b8082111562000206576000816000905550600101620001ec565b5090565b6000815190506200021b81620002fb565b92915050565b600080604083850312156200023557600080fd5b600062000245858286016200020a565b925050602062000258858286016200020a565b9150509250929050565b60006200026f8262000276565b9050919050565b600073ffffffffffffffffffffffffffffffffffffffff82169050919050565b60006002820490506001821680620002af57607f821691505b60208210811415620002c657620002c5620002cc565b5b50919050565b7f4e487b7100000000000000000000000000000000000000000000000000000000600052602260045260246000fd5b620003068162000262565b81146200031257600080fd5b50565b6111d380620003256000396000f3fe60806040526004361061007f5760003560e01c80639cf25bc61161004e5780639cf25bc614610185578063b44cfed01461018f578063cf854969146101b8578063f555b815146101e3576100c0565b806306fdde03146100fc57806336f1c04c146101275780633fc637dd146101505780638da5cb5b1461015a576100c0565b366100c0577f909c57d5c6ac08245cf2a6de3900e2b868513fa59099b92b27d8db823d92df9c5a6040516100b39190610f62565b60405180910390a1600080fd5b7f909c57d5c6ac08245cf2a6de3900e2b868513fa59099b92b27d8db823d92df9c5a6040516100ef9190610f62565b60405180910390a1600080fd5b34801561010857600080fd5b5061011161020e565b60405161011e9190610f40565b60405180910390f35b34801561013357600080fd5b5061014e60048036038101906101499190610dae565b61029c565b005b6101586105c2565b005b34801561016657600080fd5b5061016f6107d8565b60405161017c9190610e57565b60405180910390f35b61018d6107fe565b005b34801561019b57600080fd5b506101b660048036038101906101b19190610dae565b610a14565b005b3480156101c457600080fd5b506101cd610d3a565b6040516101da9190610f62565b60405180910390f35b3480156101ef57600080fd5b506101f8610d40565b6040516102059190610f62565b60405180910390f35b6000805461021b9061109f565b80601f01602080910402602001604051908101604052809291908181526020018280546102479061109f565b80156102945780601f1061026957610100808354040283529160200191610294565b820191906000526020600020905b81548152906001019060200180831161027757829003601f168201915b505050505081565b7f0ae1331318ab112a95ee02425c51404573c386026459f81bb8de13f7d8c905cf33826040516102cd929190610f17565b60405180910390a180600160009054906101000a900473ffffffffffffffffffffffffffffffffffffffff1673ffffffffffffffffffffffffffffffffffffffff166370a08231336040518263ffffffff1660e01b81526004016103319190610e57565b60206040518083038186803b15801561034957600080fd5b505afa15801561035d573d6000803e3d6000fd5b505050506040513d601f19601f820116820180604052508101906103819190610dd7565b101561038c57600080fd5b60006003548261039c9190610f99565b9050804710156103ab57600080fd5b81600160009054906101000a900473ffffffffffffffffffffffffffffffffffffffff1673ffffffffffffffffffffffffffffffffffffffff1663dd62ed3e33306040518363ffffffff1660e01b8152600401610409929190610e72565b60206040518083038186803b15801561042157600080fd5b505afa158015610435573d6000803e3d6000fd5b505050506040513d601f19601f820116820180604052508101906104599190610dd7565b101561046457600080fd5b600160009054906101000a900473ffffffffffffffffffffffffffffffffffffffff1673ffffffffffffffffffffffffffffffffffffffff166323b872dd3330856040518463ffffffff1660e01b81526004016104c393929190610e9b565b602060405180830381600087803b1580156104dd57600080fd5b505af11580156104f1573d6000803e3d6000fd5b505050506040513d601f19601f820116820180604052508101906105159190610d85565b503373ffffffffffffffffffffffffffffffffffffffff166108fc829081150290604051600060405180830381858888f1935050505015801561055c573d6000803e3d6000fd5b507f697c42d55a5e1fed3f464ec6f38b32546a0bd368dc8068b065c67566d73f329033600160009054906101000a900473ffffffffffffffffffffffffffffffffffffffff16846003546040516105b69493929190610ed2565b60405180910390a15050565b7fa020a94946e583cb93351749863f83a7623cf01ed4bb0518e49c5402b3e6f8aa33346040516105f3929190610f17565b60405180910390a160006004543461060b9190610fca565b905080600260009054906101000a900473ffffffffffffffffffffffffffffffffffffffff1673ffffffffffffffffffffffffffffffffffffffff166370a08231306040518263ffffffff1660e01b81526004016106699190610e57565b60206040518083038186803b15801561068157600080fd5b505afa158015610695573d6000803e3d6000fd5b505050506040513d601f19601f820116820180604052508101906106b99190610dd7565b10156106c457600080fd5b600260009054906101000a900473ffffffffffffffffffffffffffffffffffffffff1673ffffffffffffffffffffffffffffffffffffffff1663a9059cbb33836040518363ffffffff1660e01b8152600401610721929190610f17565b602060405180830381600087803b15801561073b57600080fd5b505af115801561074f573d6000803e3d6000fd5b505050506040513d601f19601f820116820180604052508101906107739190610d85565b507f6faf93231a456e552dbc9961f58d9713ee4f2e69d15f1975b050ef0911053a7b33600260009054906101000a900473ffffffffffffffffffffffffffffffffffffffff16836004546040516107cd9493929190610ed2565b60405180910390a150565b600560009054906101000a900473ffffffffffffffffffffffffffffffffffffffff1681565b7fed81b1142554146c397e2655f8c1598ed013f32215a3a3ff417bd9e78aea8608333460405161082f929190610f17565b60405180910390a16000600354346108479190610fca565b905080600160009054906101000a900473ffffffffffffffffffffffffffffffffffffffff1673ffffffffffffffffffffffffffffffffffffffff166370a08231306040518263ffffffff1660e01b81526004016108a59190610e57565b60206040518083038186803b1580156108bd57600080fd5b505afa1580156108d1573d6000803e3d6000fd5b505050506040513d601f19601f820116820180604052508101906108f59190610dd7565b101561090057600080fd5b600160009054906101000a900473ffffffffffffffffffffffffffffffffffffffff1673ffffffffffffffffffffffffffffffffffffffff1663a9059cbb33836040518363ffffffff1660e01b815260040161095d929190610f17565b602060405180830381600087803b15801561097757600080fd5b505af115801561098b573d6000803e3d6000fd5b505050506040513d601f19601f820116820180604052508101906109af9190610d85565b507f6faf93231a456e552dbc9961f58d9713ee4f2e69d15f1975b050ef0911053a7b33600160009054906101000a900473ffffffffffffffffffffffffffffffffffffffff1683600354604051610a099493929190610ed2565b60405180910390a150565b7f6990c014073d778a8b3c85f6bedd56de5afea4594125a8c2be06b0bb999d19743382604051610a45929190610f17565b60405180910390a180600260009054906101000a900473ffffffffffffffffffffffffffffffffffffffff1673ffffffffffffffffffffffffffffffffffffffff166370a08231336040518263ffffffff1660e01b8152600401610aa99190610e57565b60206040518083038186803b158015610ac157600080fd5b505afa158015610ad5573d6000803e3d6000fd5b505050506040513d601f19601f82011682018060405250810190610af99190610dd7565b1015610b0457600080fd5b600060045482610b149190610f99565b905080471015610b2357600080fd5b81600260009054906101000a900473ffffffffffffffffffffffffffffffffffffffff1673ffffffffffffffffffffffffffffffffffffffff1663dd62ed3e33306040518363ffffffff1660e01b8152600401610b81929190610e72565b60206040518083038186803b158015610b9957600080fd5b505afa158015610bad573d6000803e3d6000fd5b505050506040513d601f19601f82011682018060405250810190610bd19190610dd7565b1015610bdc57600080fd5b600260009054906101000a900473ffffffffffffffffffffffffffffffffffffffff1673ffffffffffffffffffffffffffffffffffffffff166323b872dd3330856040518463ffffffff1660e01b8152600401610c3b93929190610e9b565b602060405180830381600087803b158015610c5557600080fd5b505af1158015610c69573d6000803e3d6000fd5b505050506040513d601f19601f82011682018060405250810190610c8d9190610d85565b503373ffffffffffffffffffffffffffffffffffffffff166108fc829081150290604051600060405180830381858888f19350505050158015610cd4573d6000803e3d6000fd5b507f697c42d55a5e1fed3f464ec6f38b32546a0bd368dc8068b065c67566d73f329033600260009054906101000a900473ffffffffffffffffffffffffffffffffffffffff1684600454604051610d2e9493929190610ed2565b60405180910390a15050565b60035481565b60045481565b600081519050610d558161116f565b92915050565b600081359050610d6a81611186565b92915050565b600081519050610d7f81611186565b92915050565b600060208284031215610d9757600080fd5b6000610da584828501610d46565b91505092915050565b600060208284031215610dc057600080fd5b6000610dce84828501610d5b565b91505092915050565b600060208284031215610de957600080fd5b6000610df784828501610d70565b91505092915050565b610e0981611024565b82525050565b6000610e1a82610f7d565b610e248185610f88565b9350610e3481856020860161106c565b610e3d8161115e565b840191505092915050565b610e5181611062565b82525050565b6000602082019050610e6c6000830184610e00565b92915050565b6000604082019050610e876000830185610e00565b610e946020830184610e00565b9392505050565b6000606082019050610eb06000830186610e00565b610ebd6020830185610e00565b610eca6040830184610e48565b949350505050565b6000608082019050610ee76000830187610e00565b610ef46020830186610e00565b610f016040830185610e48565b610f0e6060830184610e48565b95945050505050565b6000604082019050610f2c6000830185610e00565b610f396020830184610e48565b9392505050565b60006020820190508181036000830152610f5a8184610e0f565b905092915050565b6000602082019050610f776000830184610e48565b92915050565b600081519050919050565b600082825260208201905092915050565b6000610fa482611062565b9150610faf83611062565b925082610fbf57610fbe611100565b5b828204905092915050565b6000610fd582611062565b9150610fe083611062565b9250817fffffffffffffffffffffffffffffffffffffffffffffffffffffffffffffffff0483118215151615611019576110186110d1565b5b828202905092915050565b600061102f82611042565b9050919050565b60008115159050919050565b600073ffffffffffffffffffffffffffffffffffffffff82169050919050565b6000819050919050565b60005b8381101561108a57808201518184015260208101905061106f565b83811115611099576000848401525b50505050565b600060028204905060018216806110b757607f821691505b602082108114156110cb576110ca61112f565b5b50919050565b7f4e487b7100000000000000000000000000000000000000000000000000000000600052601160045260246000fd5b7f4e487b7100000000000000000000000000000000000000000000000000000000600052601260045260246000fd5b7f4e487b7100000000000000000000000000000000000000000000000000000000600052602260045260246000fd5b6000601f19601f8301169050919050565b61117881611036565b811461118357600080fd5b50565b61118f81611062565b811461119a57600080fd5b5056fea264697066735822122069141c8af2bd951a1a1e227c8607085798c8826bd87f3f6d157bfdb922a4768864736f6c63430008030033",
  "immutableReferences": {},
  "source": "// SPDX-License-Identifier: MIT\npragma solidity 0.8.3;\n\n\n// Using dependency-injection to call other contracts' functions.\nimport \"./TokenA.sol\";\nimport \"./TokenB.sol\";\n\n/// @title A Contract that lets users buy and sell TKNA and TKNB tokens\n/// @author Menna Abuelnaga\n/// @notice You can use this contract for only the most basic simulation\ncontract SwapTokens{\n\n  string public name = \"SwapTokens Instant Exchange\";\n  TokenA token1;\n  TokenB token2;\n  uint public rate1 = 100; // 1 TKNA = 0.01 ETH\n  uint public rate2 = 200; // 1 TKNB = 0.005 ETH\n  address public owner;\n\n  event buyTokensACalled(\n    address caller,\n    uint tokenVal\n  );\n\n  event buyTokensBCalled(\n    address caller,\n    uint tokenVal\n  );\n\n  event sellTokensACalled(\n    address caller,\n    uint tokenVal\n  );\n\n  event sellTokensBCalled(\n    address caller,\n    uint tokenVal\n  );\n\n  event TokensPurchased(\n    address account,\n    address token,\n    uint amount,\n    uint rate\n  );\n\n  event TokensSold(\n    address account,\n    address token,\n    uint amount,\n    uint rate\n  );\n  \n \n  event Log(uint gas);\n\n\n  constructor(address _token1_address, address _token2_address) {\n    token1 = TokenA(_token1_address);\n    token2 = TokenB(_token2_address);\n    owner = msg.sender; // owner is the deployer\n\n  } \n\n  fallback() external payable {\n        emit Log(gasleft());\n        revert();\n  }\n\n  receive() external payable {\n      emit Log(gasleft());\n      revert();\n  }\n\n  /// @notice lets caller buy 1 TKNA for 0.01 ETH if he has enough ETH balance\n  function buyTokensA() public payable {\n    // Emit an event\n    emit buyTokensACalled(\n      msg.sender,\n      msg.value\n    );\n\n    // Calculate the number of tokens to buy\n    uint tokenAmount = msg.value * rate1;\n\n    // Require that SwapTokens has enough tokens\n    require(token1.balanceOf(address(this)) >= tokenAmount);\n\n    // Transfer tokens to the user\n    token1.transfer(msg.sender, tokenAmount); // swapTokens transfers tokenA to the msg.sender, becaue it has the allowance to do so.\n    \n\n    // Emit an event\n    emit TokensPurchased(msg.sender, address(token1), tokenAmount, rate1);\n  }\n\n  /// @notice lets caller buy 1 TKNB for 0.005 ETH if he has enough ETH balance\n  function buyTokensB() public payable {\n    // Emit an event\n    emit buyTokensBCalled(\n      msg.sender,\n      msg.value\n    );\n\n    // Calculate the number of tokens to buy\n    uint tokenAmount = msg.value * rate2;\n\n    // Require that SwapTokens has enough tokens\n    require(token2.balanceOf(address(this)) >= tokenAmount);\n\n    // Transfer tokens to the user\n    token2.transfer(msg.sender, tokenAmount);\n\n    // Emit an event\n    emit TokensPurchased(msg.sender, address(token2), tokenAmount, rate2);\n  }\n\n  /// @notice lets caller sell 1 TKNA for 0.01 ETH if he has enough TKNA balance\n  function sellTokensA(uint _amount) public {\n    // Emit an event\n    emit sellTokensACalled(\n      msg.sender,\n      _amount\n    );\n    // User can't sell more tokens than they have\n    require(token1.balanceOf(msg.sender) >= _amount);\n\n    // Calculate the amount of Eth to redeem\n    uint etherAmount = _amount / rate1;\n\n    // Require that SwapTokens has enough Eth\n    require(address(this).balance >= etherAmount);\n    require(token1.allowance(msg.sender, address(this)) >= _amount);\n\n    // Sell tokens\n\n    token1.transferFrom(msg.sender, address(this), _amount);\n    payable(msg.sender).transfer(etherAmount);\n\n    // Emit an event\n    emit TokensSold(msg.sender, address(token1), _amount, rate1);\n  }\n\n  /// @notice lets caller sell 1 TKNB for 0.005 ETH if he has enough TKNB balance\n  function sellTokensB(uint _amount) public {\n    // Emit an event\n    emit sellTokensBCalled(\n      msg.sender,\n      _amount\n    );\n    // User can't sell more tokens than they have\n    require(token2.balanceOf(msg.sender) >= _amount);\n    \n    // Calculate the amount of Ether to redeem\n    uint etherAmount = _amount / rate2;\n\n    // Require that SwapTokens has enough Ether\n    require(address(this).balance >= etherAmount);\n    require(token2.allowance(msg.sender, address(this)) >= _amount);\n    // Perform sale\n    token2.transferFrom(msg.sender, address(this), _amount);\n    payable(msg.sender).transfer(etherAmount);\n\n    // Emit an event\n    emit TokensSold(msg.sender, address(token2), _amount, rate2);\n  }\n\n\n}\n",
  "sourcePath": "/home/mnaga/Downloads/blockchain/consensysBootcamp/finalProject1/ch_t7/contracts/SwapTokens.sol",
  "compiler": {
    "name": "solc",
    "version": "0.8.3+commit.8d00100c.Emscripten.clang"
  },
  "schemaVersion": "3.4.3",
  "updatedAt": "2021-11-25T21:13:18.081Z",
  "networkType": "ethereum",
  "devdoc": {
    "author": "Menna Abuelnaga",
    "kind": "dev",
    "methods": {},
    "title": "A Contract that lets users buy and sell TKNA and TKNB tokens",
    "version": 1
  },
  "userdoc": {
    "kind": "user",
    "methods": {
      "buyTokensA()": {
        "notice": "lets caller buy 1 TKNA for 0.01 ETH if he has enough ETH balance"
      },
      "buyTokensB()": {
        "notice": "lets caller buy 1 TKNB for 0.005 ETH if he has enough ETH balance"
      },
      "sellTokensA(uint256)": {
        "notice": "lets caller sell 1 TKNA for 0.01 ETH if he has enough TKNA balance"
      },
      "sellTokensB(uint256)": {
        "notice": "lets caller sell 1 TKNB for 0.005 ETH if he has enough TKNB balance"
      }
    },
    "notice": "You can use this contract for only the most basic simulation",
    "version": 1
  }
}