{
  "contractName": "SwapTokens",
  "abi": [
    {
      "inputs": [
        {
          "internalType": "contract TokenA",
          "name": "_token1",
          "type": "address"
        },
        {
          "internalType": "contract TokenB",
          "name": "_token2",
          "type": "address"
        }
      ],
      "stateMutability": "nonpayable",
      "type": "constructor"
    },
    {
      "anonymous": false,
      "inputs": [
        {
          "indexed": false,
          "internalType": "string",
          "name": "txt",
          "type": "string"
        },
        {
          "indexed": false,
          "internalType": "address",
          "name": "seller",
          "type": "address"
        }
      ],
      "name": "HasEnoughTokensToBeSold",
      "type": "event"
    },
    {
      "anonymous": false,
      "inputs": [
        {
          "indexed": false,
          "internalType": "address",
          "name": "account",
          "type": "address"
        },
        {
          "indexed": false,
          "internalType": "address",
          "name": "token",
          "type": "address"
        },
        {
          "indexed": false,
          "internalType": "uint256",
          "name": "amount",
          "type": "uint256"
        },
        {
          "indexed": false,
          "internalType": "uint256",
          "name": "rate",
          "type": "uint256"
        }
      ],
      "name": "TokensPurchased",
      "type": "event"
    },
    {
      "anonymous": false,
      "inputs": [
        {
          "indexed": false,
          "internalType": "address",
          "name": "account",
          "type": "address"
        },
        {
          "indexed": false,
          "internalType": "address",
          "name": "token",
          "type": "address"
        },
        {
          "indexed": false,
          "internalType": "uint256",
          "name": "amount",
          "type": "uint256"
        },
        {
          "indexed": false,
          "internalType": "uint256",
          "name": "rate",
          "type": "uint256"
        }
      ],
      "name": "TokensSold",
      "type": "event"
    },
    {
      "anonymous": false,
      "inputs": [
        {
          "indexed": false,
          "internalType": "address",
          "name": "caller",
          "type": "address"
        },
        {
          "indexed": false,
          "internalType": "uint256",
          "name": "tokenVal",
          "type": "uint256"
        }
      ],
      "name": "buyTokensACalled",
      "type": "event"
    },
    {
      "anonymous": false,
      "inputs": [
        {
          "indexed": false,
          "internalType": "address",
          "name": "caller",
          "type": "address"
        },
        {
          "indexed": false,
          "internalType": "uint256",
          "name": "tokenVal",
          "type": "uint256"
        }
      ],
      "name": "buyTokensBCalled",
      "type": "event"
    },
    {
      "anonymous": false,
      "inputs": [
        {
          "indexed": false,
          "internalType": "address",
          "name": "caller",
          "type": "address"
        },
        {
          "indexed": false,
          "internalType": "uint256",
          "name": "tokenVal",
          "type": "uint256"
        }
      ],
      "name": "sellTokensACalled",
      "type": "event"
    },
    {
      "anonymous": false,
      "inputs": [
        {
          "indexed": false,
          "internalType": "address",
          "name": "caller",
          "type": "address"
        },
        {
          "indexed": false,
          "internalType": "uint256",
          "name": "tokenVal",
          "type": "uint256"
        }
      ],
      "name": "sellTokensBCalled",
      "type": "event"
    },
    {
      "inputs": [],
      "name": "name",
      "outputs": [
        {
          "internalType": "string",
          "name": "",
          "type": "string"
        }
      ],
      "stateMutability": "view",
      "type": "function",
      "constant": true
    },
    {
      "inputs": [],
      "name": "rate1",
      "outputs": [
        {
          "internalType": "uint256",
          "name": "",
          "type": "uint256"
        }
      ],
      "stateMutability": "view",
      "type": "function",
      "constant": true
    },
    {
      "inputs": [],
      "name": "rate2",
      "outputs": [
        {
          "internalType": "uint256",
          "name": "",
          "type": "uint256"
        }
      ],
      "stateMutability": "view",
      "type": "function",
      "constant": true
    },
    {
      "inputs": [],
      "name": "token1",
      "outputs": [
        {
          "internalType": "contract TokenA",
          "name": "",
          "type": "address"
        }
      ],
      "stateMutability": "view",
      "type": "function",
      "constant": true
    },
    {
      "inputs": [],
      "name": "token2",
      "outputs": [
        {
          "internalType": "contract TokenB",
          "name": "",
          "type": "address"
        }
      ],
      "stateMutability": "view",
      "type": "function",
      "constant": true
    },
    {
      "inputs": [],
      "name": "buyTokensA",
      "outputs": [],
      "stateMutability": "payable",
      "type": "function",
      "payable": true
    },
    {
      "inputs": [],
      "name": "buyTokensB",
      "outputs": [],
      "stateMutability": "payable",
      "type": "function",
      "payable": true
    },
    {
      "inputs": [
        {
          "internalType": "uint256",
          "name": "_amount",
          "type": "uint256"
        }
      ],
      "name": "sellTokensA",
      "outputs": [],
      "stateMutability": "nonpayable",
      "type": "function"
    },
    {
      "inputs": [
        {
          "internalType": "uint256",
          "name": "_amount",
          "type": "uint256"
        }
      ],
      "name": "sellTokensB",
      "outputs": [],
      "stateMutability": "nonpayable",
      "type": "function"
    }
  ],
  "bytecode": "0x60806040526040518060400160405280601b81526020017f53776170546f6b656e7320496e7374616e742045786368616e67650000000000815250600090805190602001906200005192919062000119565b50606460035560c86004553480156200006957600080fd5b50604051620014d9380380620014d983398181016040528101906200008f9190620001f7565b81600160006101000a81548173ffffffffffffffffffffffffffffffffffffffff021916908373ffffffffffffffffffffffffffffffffffffffff16021790555080600260006101000a81548173ffffffffffffffffffffffffffffffffffffffff021916908373ffffffffffffffffffffffffffffffffffffffff16021790555050506200032d565b828054620001279062000294565b90600052602060002090601f0160209004810192826200014b576000855562000197565b82601f106200016657805160ff191683800117855562000197565b8280016001018555821562000197579182015b828111156200019657825182559160200191906001019062000179565b5b509050620001a69190620001aa565b5090565b5b80821115620001c5576000816000905550600101620001ab565b5090565b600081519050620001da81620002f9565b92915050565b600081519050620001f18162000313565b92915050565b600080604083850312156200020b57600080fd5b60006200021b85828601620001c9565b92505060206200022e85828601620001e0565b9150509250929050565b6000620002458262000274565b9050919050565b6000620002598262000238565b9050919050565b60006200026d8262000238565b9050919050565b600073ffffffffffffffffffffffffffffffffffffffff82169050919050565b60006002820490506001821680620002ad57607f821691505b60208210811415620002c457620002c3620002ca565b5b50919050565b7f4e487b7100000000000000000000000000000000000000000000000000000000600052602260045260246000fd5b62000304816200024c565b81146200031057600080fd5b50565b6200031e8162000260565b81146200032a57600080fd5b50565b61119c806200033d6000396000f3fe6080604052600436106100865760003560e01c80639cf25bc6116100595780639cf25bc614610114578063b44cfed01461011e578063cf85496914610147578063d21220a714610172578063f555b8151461019d57610086565b806306fdde031461008b57806325be124e146100b657806336f1c04c146100e15780633fc637dd1461010a575b600080fd5b34801561009757600080fd5b506100a06101c8565b6040516100ad9190610e6a565b60405180910390f35b3480156100c257600080fd5b506100cb610256565b6040516100d89190610e4f565b60405180910390f35b3480156100ed57600080fd5b5061010860048036038101906101039190610c8a565b61027c565b005b610112610520565b005b61011c610736565b005b34801561012a57600080fd5b5061014560048036038101906101409190610c8a565b61094c565b005b34801561015357600080fd5b5061015c610bf0565b6040516101699190610eba565b60405180910390f35b34801561017e57600080fd5b50610187610bf6565b6040516101949190610e34565b60405180910390f35b3480156101a957600080fd5b506101b2610c1c565b6040516101bf9190610eba565b60405180910390f35b600080546101d59061103f565b80601f01602080910402602001604051908101604052809291908181526020018280546102019061103f565b801561024e5780601f106102235761010080835404028352916020019161024e565b820191906000526020600020905b81548152906001019060200180831161023157829003601f168201915b505050505081565b600260009054906101000a900473ffffffffffffffffffffffffffffffffffffffff1681565b7f0ae1331318ab112a95ee02425c51404573c386026459f81bb8de13f7d8c905cf33826040516102ad929190610e0b565b60405180910390a180600160009054906101000a900473ffffffffffffffffffffffffffffffffffffffff1673ffffffffffffffffffffffffffffffffffffffff166370a08231336040518263ffffffff1660e01b81526004016103119190610d74565b60206040518083038186803b15801561032957600080fd5b505afa15801561033d573d6000803e3d6000fd5b505050506040513d601f19601f820116820180604052508101906103619190610cb3565b101561036c57600080fd5b7ff004be17010f6bacb1869ecaa64dedcf1a5037ea61fdbfa1aee92ce3f965bab83360405161039b9190610e8c565b60405180910390a16000600354826103b39190610ef1565b9050804710156103c257600080fd5b600160009054906101000a900473ffffffffffffffffffffffffffffffffffffffff1673ffffffffffffffffffffffffffffffffffffffff166323b872dd3330856040518463ffffffff1660e01b815260040161042193929190610d8f565b602060405180830381600087803b15801561043b57600080fd5b505af115801561044f573d6000803e3d6000fd5b505050506040513d601f19601f820116820180604052508101906104739190610c61565b503373ffffffffffffffffffffffffffffffffffffffff166108fc829081150290604051600060405180830381858888f193505050501580156104ba573d6000803e3d6000fd5b507f697c42d55a5e1fed3f464ec6f38b32546a0bd368dc8068b065c67566d73f329033600160009054906101000a900473ffffffffffffffffffffffffffffffffffffffff16846003546040516105149493929190610dc6565b60405180910390a15050565b7fa020a94946e583cb93351749863f83a7623cf01ed4bb0518e49c5402b3e6f8aa3334604051610551929190610e0b565b60405180910390a16000600454346105699190610f22565b905080600260009054906101000a900473ffffffffffffffffffffffffffffffffffffffff1673ffffffffffffffffffffffffffffffffffffffff166370a08231306040518263ffffffff1660e01b81526004016105c79190610d74565b60206040518083038186803b1580156105df57600080fd5b505afa1580156105f3573d6000803e3d6000fd5b505050506040513d601f19601f820116820180604052508101906106179190610cb3565b101561062257600080fd5b600260009054906101000a900473ffffffffffffffffffffffffffffffffffffffff1673ffffffffffffffffffffffffffffffffffffffff1663a9059cbb33836040518363ffffffff1660e01b815260040161067f929190610e0b565b602060405180830381600087803b15801561069957600080fd5b505af11580156106ad573d6000803e3d6000fd5b505050506040513d601f19601f820116820180604052508101906106d19190610c61565b507f6faf93231a456e552dbc9961f58d9713ee4f2e69d15f1975b050ef0911053a7b33600260009054906101000a900473ffffffffffffffffffffffffffffffffffffffff168360045460405161072b9493929190610dc6565b60405180910390a150565b7fed81b1142554146c397e2655f8c1598ed013f32215a3a3ff417bd9e78aea86083334604051610767929190610e0b565b60405180910390a160006003543461077f9190610f22565b905080600160009054906101000a900473ffffffffffffffffffffffffffffffffffffffff1673ffffffffffffffffffffffffffffffffffffffff166370a08231306040518263ffffffff1660e01b81526004016107dd9190610d74565b60206040518083038186803b1580156107f557600080fd5b505afa158015610809573d6000803e3d6000fd5b505050506040513d601f19601f8201168201806040525081019061082d9190610cb3565b101561083857600080fd5b600160009054906101000a900473ffffffffffffffffffffffffffffffffffffffff1673ffffffffffffffffffffffffffffffffffffffff1663a9059cbb33836040518363ffffffff1660e01b8152600401610895929190610e0b565b602060405180830381600087803b1580156108af57600080fd5b505af11580156108c3573d6000803e3d6000fd5b505050506040513d601f19601f820116820180604052508101906108e79190610c61565b507f6faf93231a456e552dbc9961f58d9713ee4f2e69d15f1975b050ef0911053a7b33600160009054906101000a900473ffffffffffffffffffffffffffffffffffffffff16836003546040516109419493929190610dc6565b60405180910390a150565b7f6990c014073d778a8b3c85f6bedd56de5afea4594125a8c2be06b0bb999d1974338260405161097d929190610e0b565b60405180910390a180600260009054906101000a900473ffffffffffffffffffffffffffffffffffffffff1673ffffffffffffffffffffffffffffffffffffffff166370a08231336040518263ffffffff1660e01b81526004016109e19190610d74565b60206040518083038186803b1580156109f957600080fd5b505afa158015610a0d573d6000803e3d6000fd5b505050506040513d601f19601f82011682018060405250810190610a319190610cb3565b1015610a3c57600080fd5b7ff004be17010f6bacb1869ecaa64dedcf1a5037ea61fdbfa1aee92ce3f965bab833604051610a6b9190610e8c565b60405180910390a1600060045482610a839190610ef1565b905080471015610a9257600080fd5b600260009054906101000a900473ffffffffffffffffffffffffffffffffffffffff1673ffffffffffffffffffffffffffffffffffffffff166323b872dd3330856040518463ffffffff1660e01b8152600401610af193929190610d8f565b602060405180830381600087803b158015610b0b57600080fd5b505af1158015610b1f573d6000803e3d6000fd5b505050506040513d601f19601f82011682018060405250810190610b439190610c61565b503373ffffffffffffffffffffffffffffffffffffffff166108fc829081150290604051600060405180830381858888f19350505050158015610b8a573d6000803e3d6000fd5b507f697c42d55a5e1fed3f464ec6f38b32546a0bd368dc8068b065c67566d73f329033600260009054906101000a900473ffffffffffffffffffffffffffffffffffffffff1684600454604051610be49493929190610dc6565b60405180910390a15050565b60035481565b600160009054906101000a900473ffffffffffffffffffffffffffffffffffffffff1681565b60045481565b600081519050610c3181611138565b92915050565b600081359050610c468161114f565b92915050565b600081519050610c5b8161114f565b92915050565b600060208284031215610c7357600080fd5b6000610c8184828501610c22565b91505092915050565b600060208284031215610c9c57600080fd5b6000610caa84828501610c37565b91505092915050565b600060208284031215610cc557600080fd5b6000610cd384828501610c4c565b91505092915050565b610ce581610f7c565b82525050565b610cf481610fc4565b82525050565b610d0381610fe8565b82525050565b6000610d1482610ed5565b610d1e8185610ee0565b9350610d2e81856020860161100c565b610d37816110fe565b840191505092915050565b6000610d4f601783610ee0565b9150610d5a8261110f565b602082019050919050565b610d6e81610fba565b82525050565b6000602082019050610d896000830184610cdc565b92915050565b6000606082019050610da46000830186610cdc565b610db16020830185610cdc565b610dbe6040830184610d65565b949350505050565b6000608082019050610ddb6000830187610cdc565b610de86020830186610cdc565b610df56040830185610d65565b610e026060830184610d65565b95945050505050565b6000604082019050610e206000830185610cdc565b610e2d6020830184610d65565b9392505050565b6000602082019050610e496000830184610ceb565b92915050565b6000602082019050610e646000830184610cfa565b92915050565b60006020820190508181036000830152610e848184610d09565b905092915050565b60006040820190508181036000830152610ea581610d42565b9050610eb46020830184610cdc565b92915050565b6000602082019050610ecf6000830184610d65565b92915050565b600081519050919050565b600082825260208201905092915050565b6000610efc82610fba565b9150610f0783610fba565b925082610f1757610f166110a0565b5b828204905092915050565b6000610f2d82610fba565b9150610f3883610fba565b9250817fffffffffffffffffffffffffffffffffffffffffffffffffffffffffffffffff0483118215151615610f7157610f70611071565b5b828202905092915050565b6000610f8782610f9a565b9050919050565b60008115159050919050565b600073ffffffffffffffffffffffffffffffffffffffff82169050919050565b6000819050919050565b6000610fcf82610fd6565b9050919050565b6000610fe182610f9a565b9050919050565b6000610ff382610ffa565b9050919050565b600061100582610f9a565b9050919050565b60005b8381101561102a57808201518184015260208101905061100f565b83811115611039576000848401525b50505050565b6000600282049050600182168061105757607f821691505b6020821081141561106b5761106a6110cf565b5b50919050565b7f4e487b7100000000000000000000000000000000000000000000000000000000600052601160045260246000fd5b7f4e487b7100000000000000000000000000000000000000000000000000000000600052601260045260246000fd5b7f4e487b7100000000000000000000000000000000000000000000000000000000600052602260045260246000fd5b6000601f19601f8301169050919050565b7f486173456e6f756768546f6b656e73546f4265536f6c64000000000000000000600082015250565b61114181610f8e565b811461114c57600080fd5b50565b61115881610fba565b811461116357600080fd5b5056fea2646970667358221220d6997b33c1fcd7953a1da4b3e1fbeb79833835220a46c9001c02dc7cac8c0def64736f6c63430008010033",
  "immutableReferences": {},
  "source": "// SPDX-License-Identifier: MIT\n\npragma solidity ^0.8.0;\n\nimport \"./TokenA.sol\";\nimport \"./TokenB.sol\";\n\n\ncontract SwapTokens {\n  string public name = \"SwapTokens Instant Exchange\";\n  TokenA public token1;\n  TokenB public token2;\n  uint public rate1 = 100;\n  uint public rate2 = 200;\n\n  event buyTokensACalled(\n    address caller,\n    uint tokenVal\n  );\n\n  event buyTokensBCalled(\n    address caller,\n    uint tokenVal\n  );\n\n  event sellTokensACalled(\n    address caller,\n    uint tokenVal\n  );\n\n  event sellTokensBCalled(\n    address caller,\n    uint tokenVal\n  );\n\n  event TokensPurchased(\n    address account,\n    address token,\n    uint amount,\n    uint rate\n  );\n\n  event TokensSold(\n    address account,\n    address token,\n    uint amount,\n    uint rate\n  );\n  \n  event HasEnoughTokensToBeSold(\n    string txt,\n    address seller\n  );\n\n\n  constructor(TokenA _token1, TokenB _token2) {\n    token1 = _token1;\n    token2 = _token2;\n\n  } \n\n  function buyTokensA() public payable {\n    emit buyTokensACalled(\n      msg.sender,\n      msg.value\n    );\n\n    // Calculate the number of tokens to buy\n\n    uint tokenAmount = msg.value * rate1;\n\n    // Require that EthSwap has enough tokens\n    require(token1.balanceOf(address(this)) >= tokenAmount);\n\n    // Transfer tokens to the user\n    token1.transfer(msg.sender, tokenAmount);\n\n    // Emit an event\n    emit TokensPurchased(msg.sender, address(token1), tokenAmount, rate1);\n  }\n\n   function buyTokensB() public payable {\n     emit buyTokensBCalled(\n      msg.sender,\n      msg.value\n    );\n\n    // Calculate the number of tokens to buy\n\n    uint tokenAmount = msg.value * rate2;\n\n    // Require that EthSwap has enough tokens\n    require(token2.balanceOf(address(this)) >= tokenAmount);\n\n    // Transfer tokens to the user\n    token2.transfer(msg.sender, tokenAmount);\n\n    // Emit an event\n    emit TokensPurchased(msg.sender, address(token2), tokenAmount, rate2);\n  }\n\n  function sellTokensA(uint _amount) public {\n    emit sellTokensACalled(\n      msg.sender,\n      _amount\n    );\n    // User can't sell more tokens than they have\n    require(token1.balanceOf(msg.sender) >= _amount);\n    emit HasEnoughTokensToBeSold(\"HasEnoughTokensToBeSold\", msg.sender);\n    // Calculate the amount of Ether to redeem\n    uint etherAmount = _amount / rate1;\n\n    // Require that EthSwap has enough Ether\n    require(address(this).balance >= etherAmount);\n\n    // Perform sale\n    token1.transferFrom(msg.sender, address(this), _amount);\n    payable(msg.sender).transfer(etherAmount);\n\n    // Emit an event\n    emit TokensSold(msg.sender, address(token1), _amount, rate1);\n  }\n\n  function sellTokensB(uint _amount) public {\n     emit sellTokensBCalled(\n      msg.sender,\n      _amount\n    );\n    // User can't sell more tokens than they have\n    require(token2.balanceOf(msg.sender) >= _amount);\n    emit HasEnoughTokensToBeSold(\"HasEnoughTokensToBeSold\", msg.sender);\n    // Calculate the amount of Ether to redeem\n    uint etherAmount = _amount / rate2;\n\n    // Require that EthSwap has enough Ether\n    require(address(this).balance >= etherAmount);\n\n    // Perform sale\n    token2.transferFrom(msg.sender, address(this), _amount);\n    payable(msg.sender).transfer(etherAmount);\n\n    // Emit an event\n    emit TokensSold(msg.sender, address(token2), _amount, rate2);\n  }\n\n  \n\n\n}\n",
  "sourcePath": "/home/mnaga/Downloads/blockchain/consensysBootcamp/finalProject1/ch_t7/contracts/SwapTokens.sol",
  "compiler": {
    "name": "solc",
    "version": "0.8.1+commit.df193b15.Emscripten.clang"
  },
  "schemaVersion": "3.4.3",
  "updatedAt": "2021-11-20T12:04:42.621Z",
  "networkType": "ethereum",
  "devdoc": {
    "kind": "dev",
    "methods": {},
    "version": 1
  },
  "userdoc": {
    "kind": "user",
    "methods": {},
    "version": 1
  }
}