{
  "contractName": "SwapTokens",
  "abi": [
    {
      "inputs": [
        {
          "internalType": "contract TokenA",
          "name": "_token1",
          "type": "address"
        },
        {
          "internalType": "contract TokenB",
          "name": "_token2",
          "type": "address"
        }
      ],
      "stateMutability": "nonpayable",
      "type": "constructor"
    },
    {
      "anonymous": false,
      "inputs": [
        {
          "indexed": false,
          "internalType": "uint256",
          "name": "gas",
          "type": "uint256"
        }
      ],
      "name": "Log",
      "type": "event"
    },
    {
      "anonymous": false,
      "inputs": [
        {
          "indexed": false,
          "internalType": "address",
          "name": "account",
          "type": "address"
        },
        {
          "indexed": false,
          "internalType": "address",
          "name": "token",
          "type": "address"
        },
        {
          "indexed": false,
          "internalType": "uint256",
          "name": "amount",
          "type": "uint256"
        },
        {
          "indexed": false,
          "internalType": "uint256",
          "name": "rate",
          "type": "uint256"
        }
      ],
      "name": "TokensPurchased",
      "type": "event"
    },
    {
      "anonymous": false,
      "inputs": [
        {
          "indexed": false,
          "internalType": "address",
          "name": "account",
          "type": "address"
        },
        {
          "indexed": false,
          "internalType": "address",
          "name": "token",
          "type": "address"
        },
        {
          "indexed": false,
          "internalType": "uint256",
          "name": "amount",
          "type": "uint256"
        },
        {
          "indexed": false,
          "internalType": "uint256",
          "name": "rate",
          "type": "uint256"
        }
      ],
      "name": "TokensSold",
      "type": "event"
    },
    {
      "anonymous": false,
      "inputs": [
        {
          "indexed": false,
          "internalType": "address",
          "name": "caller",
          "type": "address"
        },
        {
          "indexed": false,
          "internalType": "uint256",
          "name": "tokenVal",
          "type": "uint256"
        }
      ],
      "name": "buyTokensACalled",
      "type": "event"
    },
    {
      "anonymous": false,
      "inputs": [
        {
          "indexed": false,
          "internalType": "address",
          "name": "caller",
          "type": "address"
        },
        {
          "indexed": false,
          "internalType": "uint256",
          "name": "tokenVal",
          "type": "uint256"
        }
      ],
      "name": "buyTokensBCalled",
      "type": "event"
    },
    {
      "anonymous": false,
      "inputs": [
        {
          "indexed": false,
          "internalType": "address",
          "name": "caller",
          "type": "address"
        },
        {
          "indexed": false,
          "internalType": "uint256",
          "name": "tokenVal",
          "type": "uint256"
        }
      ],
      "name": "sellTokensACalled",
      "type": "event"
    },
    {
      "anonymous": false,
      "inputs": [
        {
          "indexed": false,
          "internalType": "address",
          "name": "caller",
          "type": "address"
        },
        {
          "indexed": false,
          "internalType": "uint256",
          "name": "tokenVal",
          "type": "uint256"
        }
      ],
      "name": "sellTokensBCalled",
      "type": "event"
    },
    {
      "stateMutability": "payable",
      "type": "fallback",
      "payable": true
    },
    {
      "inputs": [],
      "name": "name",
      "outputs": [
        {
          "internalType": "string",
          "name": "",
          "type": "string"
        }
      ],
      "stateMutability": "view",
      "type": "function",
      "constant": true
    },
    {
      "inputs": [],
      "name": "owner",
      "outputs": [
        {
          "internalType": "address",
          "name": "",
          "type": "address"
        }
      ],
      "stateMutability": "view",
      "type": "function",
      "constant": true
    },
    {
      "inputs": [],
      "name": "rate1",
      "outputs": [
        {
          "internalType": "uint256",
          "name": "",
          "type": "uint256"
        }
      ],
      "stateMutability": "view",
      "type": "function",
      "constant": true
    },
    {
      "inputs": [],
      "name": "rate2",
      "outputs": [
        {
          "internalType": "uint256",
          "name": "",
          "type": "uint256"
        }
      ],
      "stateMutability": "view",
      "type": "function",
      "constant": true
    },
    {
      "inputs": [],
      "name": "token1",
      "outputs": [
        {
          "internalType": "contract TokenA",
          "name": "",
          "type": "address"
        }
      ],
      "stateMutability": "view",
      "type": "function",
      "constant": true
    },
    {
      "inputs": [],
      "name": "token2",
      "outputs": [
        {
          "internalType": "contract TokenB",
          "name": "",
          "type": "address"
        }
      ],
      "stateMutability": "view",
      "type": "function",
      "constant": true
    },
    {
      "stateMutability": "payable",
      "type": "receive",
      "payable": true
    },
    {
      "inputs": [],
      "name": "buyTokensA",
      "outputs": [],
      "stateMutability": "payable",
      "type": "function",
      "payable": true
    },
    {
      "inputs": [],
      "name": "buyTokensB",
      "outputs": [],
      "stateMutability": "payable",
      "type": "function",
      "payable": true
    },
    {
      "inputs": [
        {
          "internalType": "uint256",
          "name": "_amount",
          "type": "uint256"
        }
      ],
      "name": "sellTokensA",
      "outputs": [],
      "stateMutability": "nonpayable",
      "type": "function"
    },
    {
      "inputs": [
        {
          "internalType": "uint256",
          "name": "_amount",
          "type": "uint256"
        }
      ],
      "name": "sellTokensB",
      "outputs": [],
      "stateMutability": "nonpayable",
      "type": "function"
    }
  ],
  "bytecode": "0x60806040526040518060400160405280601b81526020017f53776170546f6b656e7320496e7374616e742045786368616e6765000000000081525060009080519060200190620000519291906200015a565b50606460035560c86004553480156200006957600080fd5b506040516200150a3803806200150a83398181016040528101906200008f919062000238565b81600160006101000a81548173ffffffffffffffffffffffffffffffffffffffff021916908373ffffffffffffffffffffffffffffffffffffffff16021790555080600260006101000a81548173ffffffffffffffffffffffffffffffffffffffff021916908373ffffffffffffffffffffffffffffffffffffffff16021790555033600560006101000a81548173ffffffffffffffffffffffffffffffffffffffff021916908373ffffffffffffffffffffffffffffffffffffffff16021790555050506200036e565b8280546200016890620002d5565b90600052602060002090601f0160209004810192826200018c5760008555620001d8565b82601f10620001a757805160ff1916838001178555620001d8565b82800160010185558215620001d8579182015b82811115620001d7578251825591602001919060010190620001ba565b5b509050620001e79190620001eb565b5090565b5b8082111562000206576000816000905550600101620001ec565b5090565b6000815190506200021b816200033a565b92915050565b600081519050620002328162000354565b92915050565b600080604083850312156200024c57600080fd5b60006200025c858286016200020a565b92505060206200026f8582860162000221565b9150509250929050565b60006200028682620002b5565b9050919050565b60006200029a8262000279565b9050919050565b6000620002ae8262000279565b9050919050565b600073ffffffffffffffffffffffffffffffffffffffff82169050919050565b60006002820490506001821680620002ee57607f821691505b602082108114156200030557620003046200030b565b5b50919050565b7f4e487b7100000000000000000000000000000000000000000000000000000000600052602260045260246000fd5b62000345816200028d565b81146200035157600080fd5b50565b6200035f81620002a1565b81146200036b57600080fd5b50565b61118c806200037e6000396000f3fe6080604052600436106100955760003560e01c80639cf25bc6116100595780639cf25bc6146101c6578063b44cfed0146101d0578063cf854969146101f9578063d21220a714610224578063f555b8151461024f576100d6565b806306fdde031461011257806325be124e1461013d57806336f1c04c146101685780633fc637dd146101915780638da5cb5b1461019b576100d6565b366100d6577f909c57d5c6ac08245cf2a6de3900e2b868513fa59099b92b27d8db823d92df9c5a6040516100c99190610ed3565b60405180910390a1600080fd5b7f909c57d5c6ac08245cf2a6de3900e2b868513fa59099b92b27d8db823d92df9c5a6040516101059190610ed3565b60405180910390a1600080fd5b34801561011e57600080fd5b5061012761027a565b6040516101349190610eb1565b60405180910390f35b34801561014957600080fd5b50610152610308565b60405161015f9190610e96565b60405180910390f35b34801561017457600080fd5b5061018f600480360381019061018a9190610cf4565b61032e565b005b61019961059b565b005b3480156101a757600080fd5b506101b06107b1565b6040516101bd9190610dbb565b60405180910390f35b6101ce6107d7565b005b3480156101dc57600080fd5b506101f760048036038101906101f29190610cf4565b6109ed565b005b34801561020557600080fd5b5061020e610c5a565b60405161021b9190610ed3565b60405180910390f35b34801561023057600080fd5b50610239610c60565b6040516102469190610e7b565b60405180910390f35b34801561025b57600080fd5b50610264610c86565b6040516102719190610ed3565b60405180910390f35b6000805461028790611058565b80601f01602080910402602001604051908101604052809291908181526020018280546102b390611058565b80156103005780601f106102d557610100808354040283529160200191610300565b820191906000526020600020905b8154815290600101906020018083116102e357829003601f168201915b505050505081565b600260009054906101000a900473ffffffffffffffffffffffffffffffffffffffff1681565b7f0ae1331318ab112a95ee02425c51404573c386026459f81bb8de13f7d8c905cf338260405161035f929190610e52565b60405180910390a180600160009054906101000a900473ffffffffffffffffffffffffffffffffffffffff1673ffffffffffffffffffffffffffffffffffffffff166370a08231336040518263ffffffff1660e01b81526004016103c39190610dbb565b60206040518083038186803b1580156103db57600080fd5b505afa1580156103ef573d6000803e3d6000fd5b505050506040513d601f19601f820116820180604052508101906104139190610d1d565b101561041e57600080fd5b60006003548261042e9190610f0a565b90508047101561043d57600080fd5b600160009054906101000a900473ffffffffffffffffffffffffffffffffffffffff1673ffffffffffffffffffffffffffffffffffffffff166323b872dd3330856040518463ffffffff1660e01b815260040161049c93929190610dd6565b602060405180830381600087803b1580156104b657600080fd5b505af11580156104ca573d6000803e3d6000fd5b505050506040513d601f19601f820116820180604052508101906104ee9190610ccb565b503373ffffffffffffffffffffffffffffffffffffffff166108fc829081150290604051600060405180830381858888f19350505050158015610535573d6000803e3d6000fd5b507f697c42d55a5e1fed3f464ec6f38b32546a0bd368dc8068b065c67566d73f329033600160009054906101000a900473ffffffffffffffffffffffffffffffffffffffff168460035460405161058f9493929190610e0d565b60405180910390a15050565b7fa020a94946e583cb93351749863f83a7623cf01ed4bb0518e49c5402b3e6f8aa33346040516105cc929190610e52565b60405180910390a16000600454346105e49190610f3b565b905080600260009054906101000a900473ffffffffffffffffffffffffffffffffffffffff1673ffffffffffffffffffffffffffffffffffffffff166370a08231306040518263ffffffff1660e01b81526004016106429190610dbb565b60206040518083038186803b15801561065a57600080fd5b505afa15801561066e573d6000803e3d6000fd5b505050506040513d601f19601f820116820180604052508101906106929190610d1d565b101561069d57600080fd5b600260009054906101000a900473ffffffffffffffffffffffffffffffffffffffff1673ffffffffffffffffffffffffffffffffffffffff1663a9059cbb33836040518363ffffffff1660e01b81526004016106fa929190610e52565b602060405180830381600087803b15801561071457600080fd5b505af1158015610728573d6000803e3d6000fd5b505050506040513d601f19601f8201168201806040525081019061074c9190610ccb565b507f6faf93231a456e552dbc9961f58d9713ee4f2e69d15f1975b050ef0911053a7b33600260009054906101000a900473ffffffffffffffffffffffffffffffffffffffff16836004546040516107a69493929190610e0d565b60405180910390a150565b600560009054906101000a900473ffffffffffffffffffffffffffffffffffffffff1681565b7fed81b1142554146c397e2655f8c1598ed013f32215a3a3ff417bd9e78aea86083334604051610808929190610e52565b60405180910390a16000600354346108209190610f3b565b905080600160009054906101000a900473ffffffffffffffffffffffffffffffffffffffff1673ffffffffffffffffffffffffffffffffffffffff166370a08231306040518263ffffffff1660e01b815260040161087e9190610dbb565b60206040518083038186803b15801561089657600080fd5b505afa1580156108aa573d6000803e3d6000fd5b505050506040513d601f19601f820116820180604052508101906108ce9190610d1d565b10156108d957600080fd5b600160009054906101000a900473ffffffffffffffffffffffffffffffffffffffff1673ffffffffffffffffffffffffffffffffffffffff1663a9059cbb33836040518363ffffffff1660e01b8152600401610936929190610e52565b602060405180830381600087803b15801561095057600080fd5b505af1158015610964573d6000803e3d6000fd5b505050506040513d601f19601f820116820180604052508101906109889190610ccb565b507f6faf93231a456e552dbc9961f58d9713ee4f2e69d15f1975b050ef0911053a7b33600160009054906101000a900473ffffffffffffffffffffffffffffffffffffffff16836003546040516109e29493929190610e0d565b60405180910390a150565b7f6990c014073d778a8b3c85f6bedd56de5afea4594125a8c2be06b0bb999d19743382604051610a1e929190610e52565b60405180910390a180600260009054906101000a900473ffffffffffffffffffffffffffffffffffffffff1673ffffffffffffffffffffffffffffffffffffffff166370a08231336040518263ffffffff1660e01b8152600401610a829190610dbb565b60206040518083038186803b158015610a9a57600080fd5b505afa158015610aae573d6000803e3d6000fd5b505050506040513d601f19601f82011682018060405250810190610ad29190610d1d565b1015610add57600080fd5b600060045482610aed9190610f0a565b905080471015610afc57600080fd5b600260009054906101000a900473ffffffffffffffffffffffffffffffffffffffff1673ffffffffffffffffffffffffffffffffffffffff166323b872dd3330856040518463ffffffff1660e01b8152600401610b5b93929190610dd6565b602060405180830381600087803b158015610b7557600080fd5b505af1158015610b89573d6000803e3d6000fd5b505050506040513d601f19601f82011682018060405250810190610bad9190610ccb565b503373ffffffffffffffffffffffffffffffffffffffff166108fc829081150290604051600060405180830381858888f19350505050158015610bf4573d6000803e3d6000fd5b507f697c42d55a5e1fed3f464ec6f38b32546a0bd368dc8068b065c67566d73f329033600260009054906101000a900473ffffffffffffffffffffffffffffffffffffffff1684600454604051610c4e9493929190610e0d565b60405180910390a15050565b60035481565b600160009054906101000a900473ffffffffffffffffffffffffffffffffffffffff1681565b60045481565b600081519050610c9b81611128565b92915050565b600081359050610cb08161113f565b92915050565b600081519050610cc58161113f565b92915050565b600060208284031215610cdd57600080fd5b6000610ceb84828501610c8c565b91505092915050565b600060208284031215610d0657600080fd5b6000610d1484828501610ca1565b91505092915050565b600060208284031215610d2f57600080fd5b6000610d3d84828501610cb6565b91505092915050565b610d4f81610f95565b82525050565b610d5e81610fdd565b82525050565b610d6d81611001565b82525050565b6000610d7e82610eee565b610d888185610ef9565b9350610d98818560208601611025565b610da181611117565b840191505092915050565b610db581610fd3565b82525050565b6000602082019050610dd06000830184610d46565b92915050565b6000606082019050610deb6000830186610d46565b610df86020830185610d46565b610e056040830184610dac565b949350505050565b6000608082019050610e226000830187610d46565b610e2f6020830186610d46565b610e3c6040830185610dac565b610e496060830184610dac565b95945050505050565b6000604082019050610e676000830185610d46565b610e746020830184610dac565b9392505050565b6000602082019050610e906000830184610d55565b92915050565b6000602082019050610eab6000830184610d64565b92915050565b60006020820190508181036000830152610ecb8184610d73565b905092915050565b6000602082019050610ee86000830184610dac565b92915050565b600081519050919050565b600082825260208201905092915050565b6000610f1582610fd3565b9150610f2083610fd3565b925082610f3057610f2f6110b9565b5b828204905092915050565b6000610f4682610fd3565b9150610f5183610fd3565b9250817fffffffffffffffffffffffffffffffffffffffffffffffffffffffffffffffff0483118215151615610f8a57610f8961108a565b5b828202905092915050565b6000610fa082610fb3565b9050919050565b60008115159050919050565b600073ffffffffffffffffffffffffffffffffffffffff82169050919050565b6000819050919050565b6000610fe882610fef565b9050919050565b6000610ffa82610fb3565b9050919050565b600061100c82611013565b9050919050565b600061101e82610fb3565b9050919050565b60005b83811015611043578082015181840152602081019050611028565b83811115611052576000848401525b50505050565b6000600282049050600182168061107057607f821691505b60208210811415611084576110836110e8565b5b50919050565b7f4e487b7100000000000000000000000000000000000000000000000000000000600052601160045260246000fd5b7f4e487b7100000000000000000000000000000000000000000000000000000000600052601260045260246000fd5b7f4e487b7100000000000000000000000000000000000000000000000000000000600052602260045260246000fd5b6000601f19601f8301169050919050565b61113181610fa7565b811461113c57600080fd5b50565b61114881610fd3565b811461115357600080fd5b5056fea2646970667358221220d051afa901a8def13f95fffafd8ec75196b15a44debf473c5fecb5700afdc06564736f6c63430008030033",
  "immutableReferences": {},
  "source": "// SPDX-License-Identifier: MIT\npragma solidity ^0.8.3;\n\n\n// Using dependency-injection to call other contracts' functions.\nimport \"./TokenA.sol\";\nimport \"./TokenB.sol\";\n\n/// @title A Contract that lets users buy and sell TKNA and TKNB tokens\n/// @author Menna Abuelnaga\n/// @notice You can use this contract for only the most basic simulation\ncontract SwapTokens{\n\n  string public name = \"SwapTokens Instant Exchange\";\n  TokenA public token1;\n  TokenB public token2;\n  uint public rate1 = 100; // 1 TKNA = 0.01 ETH\n  uint public rate2 = 200; // 1 TKNB = 0.005 ETH\n  address public owner;\n\n  event buyTokensACalled(\n    address caller,\n    uint tokenVal\n  );\n\n  event buyTokensBCalled(\n    address caller,\n    uint tokenVal\n  );\n\n  event sellTokensACalled(\n    address caller,\n    uint tokenVal\n  );\n\n  event sellTokensBCalled(\n    address caller,\n    uint tokenVal\n  );\n\n  event TokensPurchased(\n    address account,\n    address token,\n    uint amount,\n    uint rate\n  );\n\n  event TokensSold(\n    address account,\n    address token,\n    uint amount,\n    uint rate\n  );\n  \n \n  event Log(uint gas);\n\n\n  constructor(TokenA _token1, TokenB _token2) {\n    token1 = _token1;\n    token2 = _token2;\n    owner = msg.sender; // owner is the deployer\n\n  } \n\n  fallback() external payable {\n        emit Log(gasleft());\n        revert();\n  }\n\n  receive() external payable {\n      emit Log(gasleft());\n      revert();\n  }\n\n  /// @notice lets caller buy 1 TKNA for 0.01 ETH if he has enough ETH balance\n  function buyTokensA() public payable {\n    // Emit an event\n    emit buyTokensACalled(\n      msg.sender,\n      msg.value\n    );\n\n    // Calculate the number of tokens to buy\n    uint tokenAmount = msg.value * rate1;\n\n    // Require that SwapTokens has enough tokens\n    require(token1.balanceOf(address(this)) >= tokenAmount);\n\n    // Transfer tokens to the user\n    token1.transfer(msg.sender, tokenAmount);\n\n    // Emit an event\n    emit TokensPurchased(msg.sender, address(token1), tokenAmount, rate1);\n  }\n\n  /// @notice lets caller buy 1 TKNB for 0.005 ETH if he has enough ETH balance\n  function buyTokensB() public payable {\n    // Emit an event\n    emit buyTokensBCalled(\n      msg.sender,\n      msg.value\n    );\n\n    // Calculate the number of tokens to buy\n    uint tokenAmount = msg.value * rate2;\n\n    // Require that SwapTokens has enough tokens\n    require(token2.balanceOf(address(this)) >= tokenAmount);\n\n    // Transfer tokens to the user\n    token2.transfer(msg.sender, tokenAmount);\n\n    // Emit an event\n    emit TokensPurchased(msg.sender, address(token2), tokenAmount, rate2);\n  }\n\n  /// @notice lets caller sell 1 TKNA for 0.01 ETH if he has enough TKNA balance\n  function sellTokensA(uint _amount) public {\n    // Emit an event\n    emit sellTokensACalled(\n      msg.sender,\n      _amount\n    );\n    // User can't sell more tokens than they have\n    require(token1.balanceOf(msg.sender) >= _amount);\n\n    // Calculate the amount of Eth to redeem\n    uint etherAmount = _amount / rate1;\n\n    // Require that SwapTokens has enough Eth\n    require(address(this).balance >= etherAmount);\n\n    // Sell tokens\n    token1.transferFrom(msg.sender, address(this), _amount);\n    payable(msg.sender).transfer(etherAmount);\n\n    // Emit an event\n    emit TokensSold(msg.sender, address(token1), _amount, rate1);\n  }\n\n  /// @notice lets caller sell 1 TKNB for 0.005 ETH if he has enough TKNB balance\n  function sellTokensB(uint _amount) public {\n    // Emit an event\n    emit sellTokensBCalled(\n      msg.sender,\n      _amount\n    );\n    // User can't sell more tokens than they have\n    require(token2.balanceOf(msg.sender) >= _amount);\n    \n    // Calculate the amount of Ether to redeem\n    uint etherAmount = _amount / rate2;\n\n    // Require that SwapTokens has enough Ether\n    require(address(this).balance >= etherAmount);\n\n    // Perform sale\n    token2.transferFrom(msg.sender, address(this), _amount);\n    payable(msg.sender).transfer(etherAmount);\n\n    // Emit an event\n    emit TokensSold(msg.sender, address(token2), _amount, rate2);\n  }\n\n\n}\n",
  "sourcePath": "/home/mnaga/Downloads/blockchain/consensysBootcamp/finalProject1/ch_t7/contracts/SwapTokens.sol",
  "compiler": {
    "name": "solc",
    "version": "0.8.3+commit.8d00100c.Emscripten.clang"
  },
  "schemaVersion": "3.4.3",
  "updatedAt": "2021-11-24T01:47:27.285Z",
  "networkType": "ethereum",
  "devdoc": {
    "author": "Menna Abuelnaga",
    "kind": "dev",
    "methods": {},
    "title": "A Contract that lets users buy and sell TKNA and TKNB tokens",
    "version": 1
  },
  "userdoc": {
    "kind": "user",
    "methods": {
      "buyTokensA()": {
        "notice": "lets caller buy 1 TKNA for 0.01 ETH if he has enough ETH balance"
      },
      "buyTokensB()": {
        "notice": "lets caller buy 1 TKNB for 0.005 ETH if he has enough ETH balance"
      },
      "sellTokensA(uint256)": {
        "notice": "lets caller sell 1 TKNA for 0.01 ETH if he has enough TKNA balance"
      },
      "sellTokensB(uint256)": {
        "notice": "lets caller sell 1 TKNB for 0.005 ETH if he has enough TKNB balance"
      }
    },
    "notice": "You can use this contract for only the most basic simulation",
    "version": 1
  }
}